:100000000EC015C014C013C036C011C010C00FC040
:100010000EC00DC00CC00BC00AC009C008C011241E
:100020001FBECFE5D2E0DEBFCDBF4AD04EC0E8CF85
:10003000009741F0E7ECF0E03197F1F700C00000E5
:100040000197F6CF0895882319F088B3826003C022
:1000500098B382E0892788BB08951CBC1ABC80B77E
:100060008F7C80BF80B78F7C80BF8CE080BF86E0B4
:1000700089BF789408951F920F920FB60F921124A2
:100080002F933F934F935F936F937F938F939F93A0
:10009000AF93BF93EF93FF9380E0D5DF1FBCFF9139
:1000A000EF91BF91AF919F918F917F916F915F91F0
:1000B0004F913F912F910F900FBE0F901F90189569
:0E00C000B99A81E0C0DF1FBCFFCFF894FFCFDC
:00000001FF
