:100000000EC01DC01CC01BC02DC019C018C017C019
:1000100016C015C014C013C012C011C010C01124E6
:100020001FBECFE5D2E0DEBFCDBF10E0A0E6B0E05E
:1000300001C01D92A136B107E1F725D031C0E0CF54
:10004000882319F088B3826002C088B38D7F88BB93
:1000500008958FE080BF89B7846089BF8CE08FBD31
:10006000789408951F920F920FB60F9211248F93D8
:10007000809160008F5F809360008F910F900FBE22
:100080000F901F901895B99A81E0DADFE2DF809136
:1000900060008B30E4F380E0D3DF10926000F7CF94
:0400A000F894FFCF02
:00000001FF
