:100000000EC01DC01CC01BC02BC019C018C017C01B
:1000100016C015C014C013C012C011C010C01124E6
:100020001FBECFE5D2E0DEBFCDBF10E0A0E6B0E05E
:1000300001C01D92A336B107E1F723D052C0E0CF33
:10004000882319F088B3826002C088B38D7F88BB93
:1000500008958FE080BF89B7846089BF7894089540
:100060001F920F920FB60F9211248F938091600010
:100070008F5F809360008F910F900FBE0F901F9045
:100080001895B99A81E0DCDFE4DF85B78F7E85BF04
:1000900085B7877F85BFCCE0CFBD85B7806285BF40
:1000A000889585B78F7D85BF809160008823A1F3F7
:1000B0008091620091E0980F90936200813071F41A
:1000C00090916100911180E080936100882311F08C
:1000D00081E001C080E0B4DF109262001092600005
:0600E000DBCFF894FFCF16
:00000001FF
