:100000000EC01DC01CC01BC02BC019C018C017C01B
:1000100016C015C014C013C012C011C010C01124E6
:100020001FBECFE5D2E0DEBFCDBF10E0A0E6B0E05E
:1000300001C01D92A336B107E1F721D04FC0E0CF38
:10004000882319F088B3826002C088B38D7F88BB93
:1000500008958FE080BF89B7846089BF7894089540
:100060001F920F920FB60F9211248F9381E080930D
:1000700060008F910F900FBE0F901F901895B99A46
:1000800081E0DEDFE6DF85B78F7E85BF85B7877FBE
:1000900085BFCCE0CFBD85B7806285BF889585B729
:1000A0008F7D85BF809160008130A1F780916200D3
:1000B0008F5F80936200813071F4909161009111A3
:1000C00080E080936100882311F081E001C080E02E
:1000D000B7DF1092620010926000DCCFF894FFCF7F
:00000001FF
